{
  "contractName": "MyLandContract",
  "abi": [
    {
      "inputs": [],
      "payable": false,
      "stateMutability": "nonpayable",
      "type": "constructor"
    },
    {
      "anonymous": false,
      "inputs": [
        {
          "indexed": false,
          "internalType": "address",
          "name": "_owner",
          "type": "address"
        },
        {
          "indexed": false,
          "internalType": "uint256",
          "name": "_landID",
          "type": "uint256"
        }
      ],
      "name": "Add",
      "type": "event"
    },
    {
      "constant": true,
      "inputs": [
        {
          "internalType": "address",
          "name": "",
          "type": "address"
        },
        {
          "internalType": "uint256",
          "name": "",
          "type": "uint256"
        }
      ],
      "name": "__ownedLands",
      "outputs": [
        {
          "internalType": "address",
          "name": "ownerAddress",
          "type": "address"
        },
        {
          "internalType": "string",
          "name": "location",
          "type": "string"
        },
        {
          "internalType": "uint256",
          "name": "cost",
          "type": "uint256"
        },
        {
          "internalType": "uint256",
          "name": "landID",
          "type": "uint256"
        },
        {
          "internalType": "uint256",
          "name": "wantSell",
          "type": "uint256"
        }
      ],
      "payable": false,
      "stateMutability": "view",
      "type": "function"
    },
    {
      "constant": true,
      "inputs": [],
      "name": "totalLandsCounter",
      "outputs": [
        {
          "internalType": "uint256",
          "name": "",
          "type": "uint256"
        }
      ],
      "payable": false,
      "stateMutability": "view",
      "type": "function"
    },
    {
      "constant": false,
      "inputs": [
        {
          "internalType": "address",
          "name": "propertyOwner",
          "type": "address"
        },
        {
          "internalType": "string",
          "name": "_location",
          "type": "string"
        },
        {
          "internalType": "uint256",
          "name": "_cost",
          "type": "uint256"
        }
      ],
      "name": "addLand",
      "outputs": [
        {
          "internalType": "uint256",
          "name": "",
          "type": "uint256"
        }
      ],
      "payable": false,
      "stateMutability": "nonpayable",
      "type": "function"
    },
    {
      "constant": true,
      "inputs": [
        {
          "internalType": "address",
          "name": "_landHolder",
          "type": "address"
        }
      ],
      "name": "getNoOfLands",
      "outputs": [
        {
          "internalType": "uint256",
          "name": "",
          "type": "uint256"
        }
      ],
      "payable": false,
      "stateMutability": "view",
      "type": "function"
    },
    {
      "constant": true,
      "inputs": [],
      "name": "getTotalLandCounter",
      "outputs": [
        {
          "internalType": "uint256",
          "name": "",
          "type": "uint256"
        }
      ],
      "payable": false,
      "stateMutability": "view",
      "type": "function"
    }
  ],
  "bytecode": "0x608060405234801561001057600080fd5b5060008081905550610741806100276000396000f3fe608060405234801561001057600080fd5b50600436106100575760003560e01c806305efe9c71461005c578063097b51791461016b57806326f824481461018957806382f557ae14610282578063db9d0551146102a0575b600080fd5b6100a86004803603604081101561007257600080fd5b81019080803573ffffffffffffffffffffffffffffffffffffffff169060200190929190803590602001909291905050506102f8565b604051808673ffffffffffffffffffffffffffffffffffffffff1673ffffffffffffffffffffffffffffffffffffffff16815260200180602001858152602001848152602001838152602001828103825286818151815260200191508051906020019080838360005b8381101561012c578082015181840152602081019050610111565b50505050905090810190601f1680156101595780820380516001836020036101000a031916815260200191505b50965050505050505060405180910390f35b610173610400565b6040518082815260200191505060405180910390f35b61026c6004803603606081101561019f57600080fd5b81019080803573ffffffffffffffffffffffffffffffffffffffff169060200190929190803590602001906401000000008111156101dc57600080fd5b8201836020820111156101ee57600080fd5b8035906020019184600183028401116401000000008311171561021057600080fd5b91908080601f016020809104026020016040519081016040528093929190818152602001838380828437600081840152601f19601f82011690508083019250505050505050919291929080359060200190929190505050610409565b6040518082815260200191505060405180910390f35b61028a6105cb565b6040518082815260200191505060405180910390f35b6102e2600480360360208110156102b657600080fd5b81019080803573ffffffffffffffffffffffffffffffffffffffff1690602001909291905050506105d1565b6040518082815260200191505060405180910390f35b6001602052816000526040600020818154811061031157fe5b9060005260206000209060050201600091509150508060000160009054906101000a900473ffffffffffffffffffffffffffffffffffffffff1690806001018054600181600116156101000203166002900480601f0160208091040260200160405190810160405280929190818152602001828054600181600116156101000203166002900480156103e45780601f106103b9576101008083540402835291602001916103e4565b820191906000526020600020905b8154815290600101906020018083116103c757829003601f168201915b5050505050908060020154908060030154908060040154905085565b60008054905090565b600060016000540160008190555061041f610622565b6040518060a001604052808673ffffffffffffffffffffffffffffffffffffffff168152602001858152602001848152602001600054815260200160018152509050600160008673ffffffffffffffffffffffffffffffffffffffff1673ffffffffffffffffffffffffffffffffffffffff168152602001908152602001600020819080600181540180825580915050906001820390600052602060002090600502016000909192909190915060008201518160000160006101000a81548173ffffffffffffffffffffffffffffffffffffffff021916908373ffffffffffffffffffffffffffffffffffffffff160217905550602082015181600101908051906020019061052f929190610667565b506040820151816002015560608201518160030155608082015181600401555050507f2728c9d3205d667bbc0eefdfeda366261b4d021949630c047f3e5834b30611ab85600054604051808373ffffffffffffffffffffffffffffffffffffffff1673ffffffffffffffffffffffffffffffffffffffff1681526020018281526020019250505060405180910390a16000549150509392505050565b60005481565b600080600160008473ffffffffffffffffffffffffffffffffffffffff1673ffffffffffffffffffffffffffffffffffffffff16815260200190815260200160002080549050905080915050919050565b6040518060a00160405280600073ffffffffffffffffffffffffffffffffffffffff168152602001606081526020016000815260200160008152602001600081525090565b828054600181600116156101000203166002900490600052602060002090601f016020900481019282601f106106a857805160ff19168380011785556106d6565b828001600101855582156106d6579182015b828111156106d55782518255916020019190600101906106ba565b5b5090506106e391906106e7565b5090565b61070991905b808211156107055760008160009055506001016106ed565b5090565b9056fea265627a7a723158208d9305ad96b3b36877488425af9b48291eefaea6b40800ab37888089048d453664736f6c63430005100032",
  "source": "pragma solidity ^0.5.11;\r\ncontract MyLandContract\r\n{\r\n    struct Land\r\n    {\r\n        address ownerAddress;\r\n        string location;\r\n        uint cost;\r\n        uint landID;\r\n        uint wantSell;\r\n    }\r\n    uint public totalLandsCounter; //total no of lands via this contract at any time\r\n    constructor () public\r\n    {\r\n        totalLandsCounter = 0;\r\n    }\r\n\r\n    //land addition event\r\n    event Add(address _owner, uint _landID);\r\n\r\n    //one account can hold many lands (many landTokens, each token one land)\r\n    mapping (address => Land[]) public __ownedLands;\r\n\r\n    function addLand(address propertyOwner,string memory _location, uint _cost) public returns (uint)\r\n    {\r\n        totalLandsCounter = totalLandsCounter + 1;\r\n\r\n        Land memory myLand = Land(\r\n            {\r\n                ownerAddress: propertyOwner,\r\n                location: _location,\r\n                cost: _cost,\r\n                landID: totalLandsCounter,\r\n                wantSell: 1 \r\n                });\r\n\r\n    __ownedLands[propertyOwner].push(myLand);\r\n    emit Add(propertyOwner, totalLandsCounter);\r\n    return totalLandsCounter;\r\n    }\r\n\r\n    //GET TOTAL NO OF LANDS OWNED BY AN ACCOUNT\r\n    function getNoOfLands(address _landHolder) view public returns (uint)\r\n    {\r\n        uint index;\r\n        index = __ownedLands[_landHolder].length;\r\n        return index;\r\n    }\r\n    //get total lands counter\r\n    function getTotalLandCounter() public view returns (uint)\r\n    {\r\n        return totalLandsCounter;\r\n    }\r\n}\r\n\r\n",
  "sourcePath": "C:\\Users\\leong\\OneDrive\\Documents\\Courses\\NUS FintechSG\\PC3 - Making Contracts Smart with Blockchain\\LandContract\\contracts\\MyLandContract.sol",
  "compiler": {
    "name": "solc",
    "version": "0.5.16+commit.9c3226ce.Emscripten.clang"
  },
  "schemaVersion": "3.4.7",
  "updatedAt": "2022-04-11T09:15:12.131Z",
  "networkType": "ethereum",
  "devdoc": {
    "methods": {}
  },
  "userdoc": {
    "methods": {}
  }
}